{"abi":[{"type":"function","name":"addTwoNumbers","inputs":[{"name":"a","type":"uint256","internalType":"uint256"},{"name":"b","type":"uint256","internalType":"uint256"}],"outputs":[{"name":"","type":"uint256","internalType":"uint256"}],"stateMutability":"pure"}],"bytecode":{"object":"0x608060405234801561001057600080fd5b5060bc8061001f6000396000f3fe6080604052348015600f57600080fd5b506004361060285760003560e01c8063e2276f1c14602d575b600080fd5b603c60383660046065565b604e565b60405190815260200160405180910390f35b600081830160405181815260208101604052602081f35b60008060408385031215607757600080fd5b5050803592602090910135915056fea2646970667358221220b775d08176a2b03a42e1319a4df8174b328f1699c27b57be9acd1c7516ef54e164736f6c63430008130033","linkReferences":{}},"methodIdentifiers":{"addTwoNumbers(uint256,uint256)":"e2276f1c"},"id":22}